{
  "contractName": "DecentralBank",
  "abi": [
    {
      "inputs": [
        {
          "internalType": "contract RWD",
          "name": "_rwd",
          "type": "address"
        },
        {
          "internalType": "contract Tether",
          "name": "_tether",
          "type": "address"
        }
      ],
      "stateMutability": "nonpayable",
      "type": "constructor"
    },
    {
      "inputs": [],
      "name": "name",
      "outputs": [
        {
          "internalType": "string",
          "name": "",
          "type": "string"
        }
      ],
      "stateMutability": "view",
      "type": "function",
      "constant": true
    },
    {
      "inputs": [],
      "name": "owner",
      "outputs": [
        {
          "internalType": "address",
          "name": "",
          "type": "address"
        }
      ],
      "stateMutability": "view",
      "type": "function",
      "constant": true
    },
    {
      "inputs": [],
      "name": "rwd",
      "outputs": [
        {
          "internalType": "contract RWD",
          "name": "",
          "type": "address"
        }
      ],
      "stateMutability": "view",
      "type": "function",
      "constant": true
    },
    {
      "inputs": [],
      "name": "tether",
      "outputs": [
        {
          "internalType": "contract Tether",
          "name": "",
          "type": "address"
        }
      ],
      "stateMutability": "view",
      "type": "function",
      "constant": true
    }
  ],
  "bytecode": "0x60806040526040518060400160405280600e81526020017f446563656e7472616c2042616e6b0000000000000000000000000000000000008152506000908051906020019061004f929190610107565b5034801561005c57600080fd5b50604051610717380380610717833981810160405281019061007e91906101d4565b81600360006101000a81548173ffffffffffffffffffffffffffffffffffffffff021916908373ffffffffffffffffffffffffffffffffffffffff16021790555080600260006101000a81548173ffffffffffffffffffffffffffffffffffffffff021916908373ffffffffffffffffffffffffffffffffffffffff16021790555050506102f5565b82805461011390610266565b90600052602060002090601f016020900481019282610135576000855561017c565b82601f1061014e57805160ff191683800117855561017c565b8280016001018555821561017c579182015b8281111561017b578251825591602001919060010190610160565b5b509050610189919061018d565b5090565b5b808211156101a657600081600090555060010161018e565b5090565b6000815190506101b9816102c7565b92915050565b6000815190506101ce816102de565b92915050565b600080604083850312156101e757600080fd5b60006101f5858286016101aa565b9250506020610206858286016101bf565b9150509250929050565b600061021b82610246565b9050919050565b600061022d82610210565b9050919050565b600061023f82610210565b9050919050565b600073ffffffffffffffffffffffffffffffffffffffff82169050919050565b6000600282049050600182168061027e57607f821691505b6020821081141561029257610291610298565b5b50919050565b7f4e487b7100000000000000000000000000000000000000000000000000000000600052602260045260246000fd5b6102d081610222565b81146102db57600080fd5b50565b6102e781610234565b81146102f257600080fd5b50565b610413806103046000396000f3fe608060405234801561001057600080fd5b506004361061004c5760003560e01c806306fdde03146100515780631a8972d31461006f5780635efc071a1461008d5780638da5cb5b146100ab575b600080fd5b6100596100c9565b6040516100669190610280565b60405180910390f35b610077610157565b604051610084919061024a565b60405180910390f35b61009561017d565b6040516100a29190610265565b60405180910390f35b6100b36101a3565b6040516100c0919061022f565b60405180910390f35b600080546100d69061036b565b80601f01602080910402602001604051908101604052809291908181526020018280546101029061036b565b801561014f5780601f106101245761010080835404028352916020019161014f565b820191906000526020600020905b81548152906001019060200180831161013257829003601f168201915b505050505081565b600360009054906101000a900473ffffffffffffffffffffffffffffffffffffffff1681565b600260009054906101000a900473ffffffffffffffffffffffffffffffffffffffff1681565b600160009054906101000a900473ffffffffffffffffffffffffffffffffffffffff1681565b6101d2816102be565b82525050565b6101e1816102f0565b82525050565b6101f081610314565b82525050565b6000610201826102a2565b61020b81856102ad565b935061021b818560208601610338565b610224816103cc565b840191505092915050565b600060208201905061024460008301846101c9565b92915050565b600060208201905061025f60008301846101d8565b92915050565b600060208201905061027a60008301846101e7565b92915050565b6000602082019050818103600083015261029a81846101f6565b905092915050565b600081519050919050565b600082825260208201905092915050565b60006102c9826102d0565b9050919050565b600073ffffffffffffffffffffffffffffffffffffffff82169050919050565b60006102fb82610302565b9050919050565b600061030d826102d0565b9050919050565b600061031f82610326565b9050919050565b6000610331826102d0565b9050919050565b60005b8381101561035657808201518184015260208101905061033b565b83811115610365576000848401525b50505050565b6000600282049050600182168061038357607f821691505b602082108114156103975761039661039d565b5b50919050565b7f4e487b7100000000000000000000000000000000000000000000000000000000600052602260045260246000fd5b6000601f19601f830116905091905056fea2646970667358221220990a3436eab11499b6101276934becbc1df3bc4fd7260c234d8af708b2260f2264736f6c63430008000033",
  "immutableReferences": {},
  "source": "// SPDX-License-Identifier: MIT\r\npragma solidity >=0.7.0 <0.9.0;\r\nimport './RWD.sol';\r\nimport './Tether.sol';\r\n\r\ncontract DecentralBank {\r\n    string public name = 'Decentral Bank';\r\n    address public owner;\r\n    Tether public tether;\r\n    RWD public rwd;\r\n    constructor(RWD _rwd, Tether _tether) {\r\n        rwd = _rwd;\r\n        tether = _tether;\r\n    }\r\n}",
  "sourcePath": "C:\\Users\\kevin\\OneDrive\\Desktop\\projects\\defi-staking-app-starter\\src\\contracts\\DecentralBank.sol",
  "compiler": {
    "name": "solc",
    "version": "0.8.0+commit.c7dfd78e.Emscripten.clang"
  },
  "schemaVersion": "3.4.16",
  "updatedAt": "2024-02-26T01:11:59.100Z",
  "networkType": "ethereum",
  "devdoc": {
    "kind": "dev",
    "methods": {},
    "version": 1
  },
  "userdoc": {
    "kind": "user",
    "methods": {},
    "version": 1
  }
}